{
  "transactions": [
    {
      "hash": "0x35af6ec21160b73d91a8948e86b374a51e9b9ff3b0e90f921d065b2e3c60982f",
      "transactionType": "CALL",
      "contractName": null,
      "contractAddress": "0x779877a7b0d9e8603169ddbd7836e478b4624789",
      "function": "transferAndCall(address,uint256,bytes)",
      "arguments": [
        "0x9DdfaCa8183c41ad55329BdeeD9F6A8d53168B1B",
        "3000000000000000000",
        "0x49fd72a408d90d92e4669306a74631499884dff428af56596899db7bf75efd15"
      ],
      "transaction": {
        "from": "0xa3b4ffd71e2de5a75987c4b08a1a83c692738963",
        "to": "0x779877a7b0d9e8603169ddbd7836e478b4624789",
        "gas": "0x14cbb",
        "value": "0x0",
        "input": "0x4000aea00000000000000000000000009ddfaca8183c41ad55329bdeed9f6a8d53168b1b00000000000000000000000000000000000000000000000029a2241af62c00000000000000000000000000000000000000000000000000000000000000000060000000000000000000000000000000000000000000000000000000000000002049fd72a408d90d92e4669306a74631499884dff428af56596899db7bf75efd15",
        "nonce": "0x19",
        "chainId": "0xaa36a7"
      },
      "additionalContracts": [],
      "isFixedGasLimit": false
    }
  ],
  "receipts": [
    {
      "status": "0x1",
      "cumulativeGasUsed": "0x82ad40",
      "logs": [
        {
          "address": "0x779877a7b0d9e8603169ddbd7836e478b4624789",
          "topics": [
            "0xddf252ad1be2c89b69c2b068fc378daa952ba7f163c4a11628f55a4df523b3ef",
            "0x000000000000000000000000a3b4ffd71e2de5a75987c4b08a1a83c692738963",
            "0x0000000000000000000000009ddfaca8183c41ad55329bdeed9f6a8d53168b1b"
          ],
          "data": "0x00000000000000000000000000000000000000000000000029a2241af62c0000",
          "blockHash": "0x255fbd980f34a33448ef6a2520f436ddb3258868fccf3cedaab82a1f8cb89041",
          "blockNumber": "0x634f76",
          "transactionHash": "0x35af6ec21160b73d91a8948e86b374a51e9b9ff3b0e90f921d065b2e3c60982f",
          "transactionIndex": "0x34",
          "logIndex": "0x50",
          "removed": false
        },
        {
          "address": "0x779877a7b0d9e8603169ddbd7836e478b4624789",
          "topics": [
            "0xe19260aff97b920c7df27010903aeb9c8d2be5d310a2c67824cf3f15396e4c16",
            "0x000000000000000000000000a3b4ffd71e2de5a75987c4b08a1a83c692738963",
            "0x0000000000000000000000009ddfaca8183c41ad55329bdeed9f6a8d53168b1b"
          ],
          "data": "0x00000000000000000000000000000000000000000000000029a2241af62c00000000000000000000000000000000000000000000000000000000000000000040000000000000000000000000000000000000000000000000000000000000002049fd72a408d90d92e4669306a74631499884dff428af56596899db7bf75efd15",
          "blockHash": "0x255fbd980f34a33448ef6a2520f436ddb3258868fccf3cedaab82a1f8cb89041",
          "blockNumber": "0x634f76",
          "transactionHash": "0x35af6ec21160b73d91a8948e86b374a51e9b9ff3b0e90f921d065b2e3c60982f",
          "transactionIndex": "0x34",
          "logIndex": "0x51",
          "removed": false
        },
        {
          "address": "0x9ddfaca8183c41ad55329bdeed9f6a8d53168b1b",
          "topics": [
            "0x1ced9348ff549fceab2ac57cd3a9de38edaaab274b725ee82c23e8fc8c4eec7a",
            "0x49fd72a408d90d92e4669306a74631499884dff428af56596899db7bf75efd15"
          ],
          "data": "0x00000000000000000000000000000000000000000000000410d586a20a4c00000000000000000000000000000000000000000000000000043a77aabd00780000",
          "blockHash": "0x255fbd980f34a33448ef6a2520f436ddb3258868fccf3cedaab82a1f8cb89041",
          "blockNumber": "0x634f76",
          "transactionHash": "0x35af6ec21160b73d91a8948e86b374a51e9b9ff3b0e90f921d065b2e3c60982f",
          "transactionIndex": "0x34",
          "logIndex": "0x52",
          "removed": false
        }
      ],
      "logsBloom": "0x00000004000000000000000000000000000000000020000000000000020000000000000000000000000000000000000000001000200000000000000000000000000000000000000000000008000000000000000000000000000020000020000008000000000000000000000000000000000000000000000000000010000040000000000000000000000000010000800000000020000000000000000000001000000000000000000000000000010000000000000000000000000004000000000000000002000000000000000000000000000000000000000500000000000000000010000000000000800000000200000000800000000000000000000000000000",
      "type": "0x2",
      "transactionHash": "0x35af6ec21160b73d91a8948e86b374a51e9b9ff3b0e90f921d065b2e3c60982f",
      "transactionIndex": "0x34",
      "blockHash": "0x255fbd980f34a33448ef6a2520f436ddb3258868fccf3cedaab82a1f8cb89041",
      "blockNumber": "0x634f76",
      "gasUsed": "0xf0e5",
      "effectiveGasPrice": "0x3ea571cf",
      "from": "0xa3b4ffd71e2de5a75987c4b08a1a83c692738963",
      "to": "0x779877a7b0d9e8603169ddbd7836e478b4624789",
      "contractAddress": null
    }
  ],
  "libraries": [],
  "pending": [],
  "returns": {},
  "timestamp": 1723773151,
  "chain": 11155111,
  "commit": "8c15775"
}